{
  "_format": "hh-sol-artifact-1",
  "contractName": "AlgebraPool",
  "sourceName": "contracts/AlgebraPool.sol",
  "abi": [
    {
      "inputs": [],
      "name": "alreadyInitialized",
      "type": "error"
    },
    {
      "inputs": [],
      "name": "arithmeticError",
      "type": "error"
    },
    {
      "inputs": [],
      "name": "bottomTickLowerThanMIN",
      "type": "error"
    },
    {
      "inputs": [],
      "name": "dynamicFeeActive",
      "type": "error"
    },
    {
      "inputs": [],
      "name": "dynamicFeeDisabled",
      "type": "error"
    },
    {
      "inputs": [],
      "name": "flashInsufficientPaid0",
      "type": "error"
    },
    {
      "inputs": [],
      "name": "flashInsufficientPaid1",
      "type": "error"
    },
    {
      "inputs": [],
      "name": "insufficientInputAmount",
      "type": "error"
    },
    {
      "inputs": [],
      "name": "invalidAmountRequired",
      "type": "error"
    },
    {
      "inputs": [
        {
          "internalType": "bytes4",
          "name": "expectedSelector",
          "type": "bytes4"
        }
      ],
      "name": "invalidHookResponse",
      "type": "error"
    },
    {
      "inputs": [],
      "name": "invalidLimitSqrtPrice",
      "type": "error"
    },
    {
      "inputs": [],
      "name": "invalidNewCommunityFee",
      "type": "error"
    },
    {
      "inputs": [],
      "name": "invalidNewTickSpacing",
      "type": "error"
    },
    {
      "inputs": [],
      "name": "liquidityAdd",
      "type": "error"
    },
    {
      "inputs": [],
      "name": "liquidityOverflow",
      "type": "error"
    },
    {
      "inputs": [],
      "name": "liquiditySub",
      "type": "error"
    },
    {
      "inputs": [],
      "name": "locked",
      "type": "error"
    },
    {
      "inputs": [],
      "name": "notAllowed",
      "type": "error"
    },
    {
      "inputs": [],
      "name": "notInitialized",
      "type": "error"
    },
    {
      "inputs": [],
      "name": "pluginIsNotConnected",
      "type": "error"
    },
    {
      "inputs": [],
      "name": "priceOutOfRange",
      "type": "error"
    },
    {
      "inputs": [],
      "name": "tickInvalidLinks",
      "type": "error"
    },
    {
      "inputs": [],
      "name": "tickIsNotInitialized",
      "type": "error"
    },
    {
      "inputs": [],
      "name": "tickIsNotSpaced",
      "type": "error"
    },
    {
      "inputs": [],
      "name": "tickOutOfRange",
      "type": "error"
    },
    {
      "inputs": [],
      "name": "topTickAboveMAX",
      "type": "error"
    },
    {
      "inputs": [],
      "name": "topTickLowerOrEqBottomTick",
      "type": "error"
    },
    {
      "inputs": [],
      "name": "transferFailed",
      "type": "error"
    },
    {
      "inputs": [],
      "name": "zeroAmountRequired",
      "type": "error"
    },
    {
      "inputs": [],
      "name": "zeroLiquidityActual",
      "type": "error"
    },
    {
      "inputs": [],
      "name": "zeroLiquidityDesired",
      "type": "error"
    },
    {
      "anonymous": false,
      "inputs": [
        {
          "indexed": true,
          "internalType": "address",
          "name": "owner",
          "type": "address"
        },
        {
          "indexed": true,
          "internalType": "int24",
          "name": "bottomTick",
          "type": "int24"
        },
        {
          "indexed": true,
          "internalType": "int24",
          "name": "topTick",
          "type": "int24"
        },
        {
          "indexed": false,
          "internalType": "uint128",
          "name": "liquidityAmount",
          "type": "uint128"
        },
        {
          "indexed": false,
          "internalType": "uint256",
          "name": "amount0",
          "type": "uint256"
        },
        {
          "indexed": false,
          "internalType": "uint256",
          "name": "amount1",
          "type": "uint256"
        }
      ],
      "name": "Burn",
      "type": "event"
    },
    {
      "anonymous": false,
      "inputs": [
        {
          "indexed": true,
          "internalType": "address",
          "name": "owner",
          "type": "address"
        },
        {
          "indexed": false,
          "internalType": "address",
          "name": "recipient",
          "type": "address"
        },
        {
          "indexed": true,
          "internalType": "int24",
          "name": "bottomTick",
          "type": "int24"
        },
        {
          "indexed": true,
          "internalType": "int24",
          "name": "topTick",
          "type": "int24"
        },
        {
          "indexed": false,
          "internalType": "uint128",
          "name": "amount0",
          "type": "uint128"
        },
        {
          "indexed": false,
          "internalType": "uint128",
          "name": "amount1",
          "type": "uint128"
        }
      ],
      "name": "Collect",
      "type": "event"
    },
    {
      "anonymous": false,
      "inputs": [
        {
          "indexed": false,
          "internalType": "uint16",
          "name": "communityFeeNew",
          "type": "uint16"
        }
      ],
      "name": "CommunityFee",
      "type": "event"
    },
    {
      "anonymous": false,
      "inputs": [
        {
          "indexed": false,
          "internalType": "address",
          "name": "newCommunityVault",
          "type": "address"
        }
      ],
      "name": "CommunityVault",
      "type": "event"
    },
    {
      "anonymous": false,
      "inputs": [
        {
          "indexed": false,
          "internalType": "uint256",
          "name": "amount0",
          "type": "uint256"
        },
        {
          "indexed": false,
          "internalType": "uint256",
          "name": "amount1",
          "type": "uint256"
        }
      ],
      "name": "ExcessTokens",
      "type": "event"
    },
    {
      "anonymous": false,
      "inputs": [
        {
          "indexed": false,
          "internalType": "uint16",
          "name": "fee",
          "type": "uint16"
        }
      ],
      "name": "Fee",
      "type": "event"
    },
    {
      "anonymous": false,
      "inputs": [
        {
          "indexed": true,
          "internalType": "address",
          "name": "sender",
          "type": "address"
        },
        {
          "indexed": true,
          "internalType": "address",
          "name": "recipient",
          "type": "address"
        },
        {
          "indexed": false,
          "internalType": "uint256",
          "name": "amount0",
          "type": "uint256"
        },
        {
          "indexed": false,
          "internalType": "uint256",
          "name": "amount1",
          "type": "uint256"
        },
        {
          "indexed": false,
          "internalType": "uint256",
          "name": "paid0",
          "type": "uint256"
        },
        {
          "indexed": false,
          "internalType": "uint256",
          "name": "paid1",
          "type": "uint256"
        }
      ],
      "name": "Flash",
      "type": "event"
    },
    {
      "anonymous": false,
      "inputs": [
        {
          "indexed": false,
          "internalType": "uint160",
          "name": "price",
          "type": "uint160"
        },
        {
          "indexed": false,
          "internalType": "int24",
          "name": "tick",
          "type": "int24"
        }
      ],
      "name": "Initialize",
      "type": "event"
    },
    {
      "anonymous": false,
      "inputs": [
        {
          "indexed": false,
          "internalType": "address",
          "name": "sender",
          "type": "address"
        },
        {
          "indexed": true,
          "internalType": "address",
          "name": "owner",
          "type": "address"
        },
        {
          "indexed": true,
          "internalType": "int24",
          "name": "bottomTick",
          "type": "int24"
        },
        {
          "indexed": true,
          "internalType": "int24",
          "name": "topTick",
          "type": "int24"
        },
        {
          "indexed": false,
          "internalType": "uint128",
          "name": "liquidityAmount",
          "type": "uint128"
        },
        {
          "indexed": false,
          "internalType": "uint256",
          "name": "amount0",
          "type": "uint256"
        },
        {
          "indexed": false,
          "internalType": "uint256",
          "name": "amount1",
          "type": "uint256"
        }
      ],
      "name": "Mint",
      "type": "event"
    },
    {
      "anonymous": false,
      "inputs": [
        {
          "indexed": false,
          "internalType": "address",
          "name": "newPluginAddress",
          "type": "address"
        }
      ],
      "name": "Plugin",
      "type": "event"
    },
    {
      "anonymous": false,
      "inputs": [
        {
          "indexed": false,
          "internalType": "uint8",
          "name": "newPluginConfig",
          "type": "uint8"
        }
      ],
      "name": "PluginConfig",
      "type": "event"
    },
    {
      "anonymous": false,
      "inputs": [
        {
          "indexed": true,
          "internalType": "address",
          "name": "sender",
          "type": "address"
        },
        {
          "indexed": true,
          "internalType": "address",
          "name": "recipient",
          "type": "address"
        },
        {
          "indexed": false,
          "internalType": "int256",
          "name": "amount0",
          "type": "int256"
        },
        {
          "indexed": false,
          "internalType": "int256",
          "name": "amount1",
          "type": "int256"
        },
        {
          "indexed": false,
          "internalType": "uint160",
          "name": "price",
          "type": "uint160"
        },
        {
          "indexed": false,
          "internalType": "uint128",
          "name": "liquidity",
          "type": "uint128"
        },
        {
          "indexed": false,
          "internalType": "int24",
          "name": "tick",
          "type": "int24"
        }
      ],
      "name": "Swap",
      "type": "event"
    },
    {
      "anonymous": false,
      "inputs": [
        {
          "indexed": false,
          "internalType": "int24",
          "name": "newTickSpacing",
          "type": "int24"
        }
      ],
      "name": "TickSpacing",
      "type": "event"
    },
    {
      "inputs": [
        {
          "internalType": "int24",
          "name": "bottomTick",
          "type": "int24"
        },
        {
          "internalType": "int24",
          "name": "topTick",
          "type": "int24"
        },
        {
          "internalType": "uint128",
          "name": "amount",
          "type": "uint128"
        },
        {
          "internalType": "bytes",
          "name": "data",
          "type": "bytes"
        }
      ],
      "name": "burn",
      "outputs": [
        {
          "internalType": "uint256",
          "name": "amount0",
          "type": "uint256"
        },
        {
          "internalType": "uint256",
          "name": "amount1",
          "type": "uint256"
        }
      ],
      "stateMutability": "nonpayable",
      "type": "function"
    },
    {
      "inputs": [
        {
          "internalType": "address",
          "name": "recipient",
          "type": "address"
        },
        {
          "internalType": "int24",
          "name": "bottomTick",
          "type": "int24"
        },
        {
          "internalType": "int24",
          "name": "topTick",
          "type": "int24"
        },
        {
          "internalType": "uint128",
          "name": "amount0Requested",
          "type": "uint128"
        },
        {
          "internalType": "uint128",
          "name": "amount1Requested",
          "type": "uint128"
        }
      ],
      "name": "collect",
      "outputs": [
        {
          "internalType": "uint128",
          "name": "amount0",
          "type": "uint128"
        },
        {
          "internalType": "uint128",
          "name": "amount1",
          "type": "uint128"
        }
      ],
      "stateMutability": "nonpayable",
      "type": "function"
    },
    {
      "inputs": [],
      "name": "communityFeeLastTimestamp",
      "outputs": [
        {
          "internalType": "uint32",
          "name": "",
          "type": "uint32"
        }
      ],
      "stateMutability": "view",
      "type": "function"
    },
    {
      "inputs": [],
      "name": "communityVault",
      "outputs": [
        {
          "internalType": "address",
          "name": "",
          "type": "address"
        }
      ],
      "stateMutability": "view",
      "type": "function"
    },
    {
      "inputs": [],
      "name": "factory",
      "outputs": [
        {
          "internalType": "address",
          "name": "",
          "type": "address"
        }
      ],
      "stateMutability": "view",
      "type": "function"
    },
    {
      "inputs": [],
      "name": "fee",
      "outputs": [
        {
          "internalType": "uint16",
          "name": "currentFee",
          "type": "uint16"
        }
      ],
      "stateMutability": "view",
      "type": "function"
    },
    {
      "inputs": [
        {
          "internalType": "address",
          "name": "recipient",
          "type": "address"
        },
        {
          "internalType": "uint256",
          "name": "amount0",
          "type": "uint256"
        },
        {
          "internalType": "uint256",
          "name": "amount1",
          "type": "uint256"
        },
        {
          "internalType": "bytes",
          "name": "data",
          "type": "bytes"
        }
      ],
      "name": "flash",
      "outputs": [],
      "stateMutability": "nonpayable",
      "type": "function"
    },
    {
      "inputs": [],
      "name": "getCommunityFeePending",
      "outputs": [
        {
          "internalType": "uint128",
          "name": "",
          "type": "uint128"
        },
        {
          "internalType": "uint128",
          "name": "",
          "type": "uint128"
        }
      ],
      "stateMutability": "view",
      "type": "function"
    },
    {
      "inputs": [],
      "name": "getReserves",
      "outputs": [
        {
          "internalType": "uint128",
          "name": "",
          "type": "uint128"
        },
        {
          "internalType": "uint128",
          "name": "",
          "type": "uint128"
        }
      ],
      "stateMutability": "view",
      "type": "function"
    },
    {
      "inputs": [],
      "name": "globalState",
      "outputs": [
        {
          "internalType": "uint160",
          "name": "price",
          "type": "uint160"
        },
        {
          "internalType": "int24",
          "name": "tick",
          "type": "int24"
        },
        {
          "internalType": "uint16",
          "name": "lastFee",
          "type": "uint16"
        },
        {
          "internalType": "uint8",
          "name": "pluginConfig",
          "type": "uint8"
        },
        {
          "internalType": "uint16",
          "name": "communityFee",
          "type": "uint16"
        },
        {
          "internalType": "bool",
          "name": "unlocked",
          "type": "bool"
        }
      ],
      "stateMutability": "view",
      "type": "function"
    },
    {
      "inputs": [
        {
          "internalType": "uint160",
          "name": "initialPrice",
          "type": "uint160"
        }
      ],
      "name": "initialize",
      "outputs": [],
      "stateMutability": "nonpayable",
      "type": "function"
    },
    {
      "inputs": [],
      "name": "isUnlocked",
      "outputs": [
        {
          "internalType": "bool",
          "name": "unlocked",
          "type": "bool"
        }
      ],
      "stateMutability": "view",
      "type": "function"
    },
    {
      "inputs": [],
      "name": "liquidity",
      "outputs": [
        {
          "internalType": "uint128",
          "name": "",
          "type": "uint128"
        }
      ],
      "stateMutability": "view",
      "type": "function"
    },
    {
      "inputs": [],
      "name": "maxLiquidityPerTick",
      "outputs": [
        {
          "internalType": "uint128",
          "name": "",
          "type": "uint128"
        }
      ],
      "stateMutability": "view",
      "type": "function"
    },
    {
      "inputs": [
        {
          "internalType": "address",
          "name": "leftoversRecipient",
          "type": "address"
        },
        {
          "internalType": "address",
          "name": "recipient",
          "type": "address"
        },
        {
          "internalType": "int24",
          "name": "bottomTick",
          "type": "int24"
        },
        {
          "internalType": "int24",
          "name": "topTick",
          "type": "int24"
        },
        {
          "internalType": "uint128",
          "name": "liquidityDesired",
          "type": "uint128"
        },
        {
          "internalType": "bytes",
          "name": "data",
          "type": "bytes"
        }
      ],
      "name": "mint",
      "outputs": [
        {
          "internalType": "uint256",
          "name": "amount0",
          "type": "uint256"
        },
        {
          "internalType": "uint256",
          "name": "amount1",
          "type": "uint256"
        },
        {
          "internalType": "uint128",
          "name": "liquidityActual",
          "type": "uint128"
        }
      ],
      "stateMutability": "nonpayable",
      "type": "function"
    },
    {
      "inputs": [],
      "name": "nextTickGlobal",
      "outputs": [
        {
          "internalType": "int24",
          "name": "",
          "type": "int24"
        }
      ],
      "stateMutability": "view",
      "type": "function"
    },
    {
      "inputs": [],
      "name": "plugin",
      "outputs": [
        {
          "internalType": "address",
          "name": "",
          "type": "address"
        }
      ],
      "stateMutability": "view",
      "type": "function"
    },
    {
      "inputs": [
        {
          "internalType": "bytes32",
          "name": "",
          "type": "bytes32"
        }
      ],
      "name": "positions",
      "outputs": [
        {
          "internalType": "uint256",
          "name": "liquidity",
          "type": "uint256"
        },
        {
          "internalType": "uint256",
          "name": "innerFeeGrowth0Token",
          "type": "uint256"
        },
        {
          "internalType": "uint256",
          "name": "innerFeeGrowth1Token",
          "type": "uint256"
        },
        {
          "internalType": "uint128",
          "name": "fees0",
          "type": "uint128"
        },
        {
          "internalType": "uint128",
          "name": "fees1",
          "type": "uint128"
        }
      ],
      "stateMutability": "view",
      "type": "function"
    },
    {
      "inputs": [],
      "name": "prevTickGlobal",
      "outputs": [
        {
          "internalType": "int24",
          "name": "",
          "type": "int24"
        }
      ],
      "stateMutability": "view",
      "type": "function"
    },
    {
      "inputs": [],
      "name": "safelyGetStateOfAMM",
      "outputs": [
        {
          "internalType": "uint160",
          "name": "sqrtPrice",
          "type": "uint160"
        },
        {
          "internalType": "int24",
          "name": "tick",
          "type": "int24"
        },
        {
          "internalType": "uint16",
          "name": "lastFee",
          "type": "uint16"
        },
        {
          "internalType": "uint8",
          "name": "pluginConfig",
          "type": "uint8"
        },
        {
          "internalType": "uint128",
          "name": "activeLiquidity",
          "type": "uint128"
        },
        {
          "internalType": "int24",
          "name": "nextTick",
          "type": "int24"
        },
        {
          "internalType": "int24",
          "name": "previousTick",
          "type": "int24"
        }
      ],
      "stateMutability": "view",
      "type": "function"
    },
    {
      "inputs": [
        {
          "internalType": "uint16",
          "name": "newCommunityFee",
          "type": "uint16"
        }
      ],
      "name": "setCommunityFee",
      "outputs": [],
      "stateMutability": "nonpayable",
      "type": "function"
    },
    {
      "inputs": [
        {
          "internalType": "address",
          "name": "newCommunityVault",
          "type": "address"
        }
      ],
      "name": "setCommunityVault",
      "outputs": [],
      "stateMutability": "nonpayable",
      "type": "function"
    },
    {
      "inputs": [
        {
          "internalType": "uint16",
          "name": "newFee",
          "type": "uint16"
        }
      ],
      "name": "setFee",
      "outputs": [],
      "stateMutability": "nonpayable",
      "type": "function"
    },
    {
      "inputs": [
        {
          "internalType": "address",
          "name": "newPluginAddress",
          "type": "address"
        }
      ],
      "name": "setPlugin",
      "outputs": [],
      "stateMutability": "nonpayable",
      "type": "function"
    },
    {
      "inputs": [
        {
          "internalType": "uint8",
          "name": "newConfig",
          "type": "uint8"
        }
      ],
      "name": "setPluginConfig",
      "outputs": [],
      "stateMutability": "nonpayable",
      "type": "function"
    },
    {
      "inputs": [
        {
          "internalType": "int24",
          "name": "newTickSpacing",
          "type": "int24"
        }
      ],
      "name": "setTickSpacing",
      "outputs": [],
      "stateMutability": "nonpayable",
      "type": "function"
    },
    {
      "inputs": [
        {
          "internalType": "address",
          "name": "recipient",
          "type": "address"
        },
        {
          "internalType": "bool",
          "name": "zeroToOne",
          "type": "bool"
        },
        {
          "internalType": "int256",
          "name": "amountRequired",
          "type": "int256"
        },
        {
          "internalType": "uint160",
          "name": "limitSqrtPrice",
          "type": "uint160"
        },
        {
          "internalType": "bytes",
          "name": "data",
          "type": "bytes"
        }
      ],
      "name": "swap",
      "outputs": [
        {
          "internalType": "int256",
          "name": "amount0",
          "type": "int256"
        },
        {
          "internalType": "int256",
          "name": "amount1",
          "type": "int256"
        }
      ],
      "stateMutability": "nonpayable",
      "type": "function"
    },
    {
      "inputs": [
        {
          "internalType": "address",
          "name": "leftoversRecipient",
          "type": "address"
        },
        {
          "internalType": "address",
          "name": "recipient",
          "type": "address"
        },
        {
          "internalType": "bool",
          "name": "zeroToOne",
          "type": "bool"
        },
        {
          "internalType": "int256",
          "name": "amountToSell",
          "type": "int256"
        },
        {
          "internalType": "uint160",
          "name": "limitSqrtPrice",
          "type": "uint160"
        },
        {
          "internalType": "bytes",
          "name": "data",
          "type": "bytes"
        }
      ],
      "name": "swapWithPaymentInAdvance",
      "outputs": [
        {
          "internalType": "int256",
          "name": "amount0",
          "type": "int256"
        },
        {
          "internalType": "int256",
          "name": "amount1",
          "type": "int256"
        }
      ],
      "stateMutability": "nonpayable",
      "type": "function"
    },
    {
      "inputs": [],
      "name": "tickSpacing",
      "outputs": [
        {
          "internalType": "int24",
          "name": "",
          "type": "int24"
        }
      ],
      "stateMutability": "view",
      "type": "function"
    },
    {
      "inputs": [
        {
          "internalType": "int16",
          "name": "",
          "type": "int16"
        }
      ],
      "name": "tickTable",
      "outputs": [
        {
          "internalType": "uint256",
          "name": "",
          "type": "uint256"
        }
      ],
      "stateMutability": "view",
      "type": "function"
    },
    {
      "inputs": [],
      "name": "tickTreeRoot",
      "outputs": [
        {
          "internalType": "uint32",
          "name": "",
          "type": "uint32"
        }
      ],
      "stateMutability": "view",
      "type": "function"
    },
    {
      "inputs": [
        {
          "internalType": "int16",
          "name": "",
          "type": "int16"
        }
      ],
      "name": "tickTreeSecondLayer",
      "outputs": [
        {
          "internalType": "uint256",
          "name": "",
          "type": "uint256"
        }
      ],
      "stateMutability": "view",
      "type": "function"
    },
    {
      "inputs": [
        {
          "internalType": "int24",
          "name": "",
          "type": "int24"
        }
      ],
      "name": "ticks",
      "outputs": [
        {
          "internalType": "uint256",
          "name": "liquidityTotal",
          "type": "uint256"
        },
        {
          "internalType": "int128",
          "name": "liquidityDelta",
          "type": "int128"
        },
        {
          "internalType": "int24",
          "name": "prevTick",
          "type": "int24"
        },
        {
          "internalType": "int24",
          "name": "nextTick",
          "type": "int24"
        },
        {
          "internalType": "uint256",
          "name": "outerFeeGrowth0Token",
          "type": "uint256"
        },
        {
          "internalType": "uint256",
          "name": "outerFeeGrowth1Token",
          "type": "uint256"
        }
      ],
      "stateMutability": "view",
      "type": "function"
    },
    {
      "inputs": [],
      "name": "token0",
      "outputs": [
        {
          "internalType": "address",
          "name": "",
          "type": "address"
        }
      ],
      "stateMutability": "view",
      "type": "function"
    },
    {
      "inputs": [],
      "name": "token1",
      "outputs": [
        {
          "internalType": "address",
          "name": "",
          "type": "address"
        }
      ],
      "stateMutability": "view",
      "type": "function"
    },
    {
      "inputs": [],
      "name": "totalFeeGrowth0Token",
      "outputs": [
        {
          "internalType": "uint256",
          "name": "",
          "type": "uint256"
        }
      ],
      "stateMutability": "view",
      "type": "function"
    },
    {
      "inputs": [],
      "name": "totalFeeGrowth1Token",
      "outputs": [
        {
          "internalType": "uint256",
          "name": "",
          "type": "uint256"
        }
      ],
      "stateMutability": "view",
      "type": "function"
    }
  ],
  "bytecode": "0x60e06040523480156200001157600080fd5b5060006200001e620000b0565b6001600160a01b0390811660c05290811660a052166080529050620d89e719620000488162000273565b6008805462ffffff93841663010000000265ffffffffffff1990911693909216929092171790556002805460ff60e01b1916600160e01b1790556001600160a01b038116156200009d576200009d8162000129565b50620000aa60036200017d565b6200031e565b600080600080336001600160a01b03166304889e266040518163ffffffff1660e01b8152600401608060405180830381865afa158015620000f5573d6000803e3d6000fd5b505050506040513d601f19601f820116820180604052508101906200011b9190620002c1565b935093509350935090919293565b600580546001600160a01b0319166001600160a01b0383169081179091556040519081527f27a3944eff2135a57675f17e72501038982b73620d01f794c72e93d61a3932a29060200160405180910390a150565b620d89e7196200018d8162000273565b620d89e7196000818152602085905260409020600101805465ffffffffffff60801b1916600160981b62ffffff9485160262ffffff60801b191617600160801b949093169390930291909117909155620001e78162000273565b826000620001f9620d89e71962000273565b60020b60020b81526020019081526020016000206001016010846000620d89e719620002259062000273565b60020b81526020810191909152604001600020600101805462ffffff948516600160981b0262ffffff60981b1990911617905581549383166101009190910a90810292021990921617905550565b60008160020b627fffff1981036200029b57634e487b7160e01b600052601160045260246000fd5b60000392915050565b80516001600160a01b0381168114620002bc57600080fd5b919050565b60008060008060808587031215620002d857600080fd5b620002e385620002a4565b9350620002f360208601620002a4565b92506200030360408601620002a4565b91506200031360608601620002a4565b905092959194509250565b60805160a05160c051615972620003da600039600081816109ba01528181610c4a015281816111e60152818161156c01528181611911015281816119d301528181611dbe0152818161258501528181612fa201526131610152600081816102f301528181610cd0015281816111a201528181611529015281816119490152818161199b01528181611d6f0152818161251e01528181612e4f0152612f7101526000818161092c0152818161332001526140b701526159726000f3fe608060405234801561001057600080fd5b50600436106102775760003560e01c806397ce1c5111610160578063d5c35a7e116100d8578063ecdecf421161008c578063f085a61011610071578063f085a61014610b0c578063f30dba9314610b2c578063f637731d14610bc657600080fd5b8063ecdecf4214610af0578063ef01df4f14610af957600080fd5b8063d8619037116100bd578063d861903714610a0f578063ddca3f4314610a3c578063e76c01e414610a5b57600080fd5b8063d5c35a7e146109dc578063d8544cf3146109e957600080fd5b8063c45a01551161012f578063cc1f97cf11610114578063cc1f97cf1461097b578063d0c93a7c146109a1578063d21220a7146109b557600080fd5b8063c45a015514610927578063c677e3e01461094e57600080fd5b806397ce1c51146107335780639e4e022714610794578063aafe29c014610833578063bca57f811461090757600080fd5b80634f1eb3d8116101f35780636378ae44116101c25780637bd78025116101a75780637bd78025146106ba5780638380edb7146106f15780638e0055531461071257600080fd5b80636378ae441461068a57806370cf754a146106a557600080fd5b80634f1eb3d814610585578063514ea4bf146105d657806353e9786814610660578063578b9a361461067357600080fd5b8063128acb081161024a578063240a875a1161022f578063240a875a146104425780633b3bc70e14610465578063490e6cbc146104f957600080fd5b8063128acb081461035a5780631a6865021461040957600080fd5b8063050a4d211461027c5780630902f1ac146102a75780630dfe1681146102ee5780631131b11014610331575b600080fd5b600854610290906301000000900460020b81565b6040805160029290920b8252519081900360200190f35b600b546001600160801b0380821691600160801b9004165b60405180836001600160801b03168152602001826001600160801b031681526020019250505060405180910390f35b6103157f000000000000000000000000000000000000000000000000000000000000000081565b604080516001600160a01b039092168252519081900360200190f35b6004546103419063ffffffff1681565b6040805163ffffffff9092168252519081900360200190f35b6103f0600480360360a081101561037057600080fd5b6001600160a01b0382358116926020810135151592604082013592606083013516919081019060a0810160808201356401000000008111156103b157600080fd5b8201836020820111156103c357600080fd5b803590602001918460018302840111640100000000831117156103e557600080fd5b509092509050610bec565b6040805192835260208301919091528051918290030190f35b60085461042690660100000000000090046001600160801b031681565b604080516001600160801b039092168252519081900360200190f35b6104636004803603602081101561045857600080fd5b503561ffff16610dfc565b005b6103f06004803603608081101561047b57600080fd5b8135600290810b92602081013590910b916001600160801b0360408301351691908101906080810160608201356401000000008111156104ba57600080fd5b8201836020820111156104cc57600080fd5b803590602001918460018302840111640100000000831117156104ee57600080fd5b509092509050610e94565b6104636004803603608081101561050f57600080fd5b6001600160a01b03823516916020810135916040820135919081019060808101606082013564010000000081111561054657600080fd5b82018360208201111561055857600080fd5b8035906020019184600183028401116401000000008311171561057a57600080fd5b509092509050611052565b6102bf600480360360a081101561059b57600080fd5b506001600160a01b03813516906020810135600290810b91604081013590910b906001600160801b0360608201358116916080013516611474565b610629600480360360208110156105ec57600080fd5b50600a60205235600090815260409020805460018201546002830154600390930154919290916001600160801b0380821691600160801b90041685565b604080519586526020860194909452848401929092526001600160801b039081166060850152166080830152519081900360a00190f35b600654610315906001600160a01b031681565b60085461034190600160c81b900463ffffffff1681565b61069360005481565b60408051918252519081900360200190f35b6104266d09745258e83de0d0f4e400fce79981565b6004546cffffffffffffffffffffffffff6401000000008204811691710100000000000000000000000000000000009004166102bf565b600254600160e01b900460ff16604080519115158252519081900360200190f35b6104636004803603602081101561072857600080fd5b503561ffff16611646565b61073b611718565b604080516001600160a01b039098168852600296870b602089015261ffff9095168786015260ff90931660608701526001600160801b039091166080860152830b60a085015290910b60c0830152519081900360e00190f35b6103f0600480360360c08110156107aa57600080fd5b6001600160a01b0382358116926020810135821692604082013515159260608301359260808101359091169181019060c0810160a08201356401000000008111156107f457600080fd5b82018360208201111561080657600080fd5b8035906020019184600183028401116401000000008311171561082857600080fd5b5090925090506117ae565b6108e0600480360360c081101561084957600080fd5b6001600160a01b0382358116926020810135909116916040820135600290810b92606081013590910b916001600160801b03608083013516919081019060c0810160a08201356401000000008111156108a157600080fd5b8201836020820111156108b357600080fd5b803590602001918460018302840111640100000000831117156108d557600080fd5b509092509050611ab4565b6040805193845260208401929092526001600160801b031682820152519081900360600190f35b6104636004803603602081101561091d57600080fd5b503560ff16611ec4565b6103157f000000000000000000000000000000000000000000000000000000000000000081565b6106936004803603602081101561096457600080fd5b5060076020523560010b6000908152604090205481565b6104636004803603602081101561099157600080fd5b50356001600160a01b0316611f30565b60085461029090600160b01b900460020b81565b6103157f000000000000000000000000000000000000000000000000000000000000000081565b6008546102909060020b81565b610463600480360360208110156109ff57600080fd5b50356001600160a01b0316611f53565b61069360048036036020811015610a2557600080fd5b5060096020523560010b6000908152604090205481565b610a44611f9e565b6040805161ffff9092168252519081900360200190f35b60028054610aa6916001600160a01b03821691600160a01b810490910b9061ffff600160b81b820481169160ff600160c81b8204811692600160d01b83041691600160e01b90041686565b604080516001600160a01b03909716875260029590950b602087015261ffff9384168686015260ff90921660608601529091166080840152151560a0830152519081900360c00190f35b61069360015481565b600554610315906001600160a01b031681565b61046360048036036020811015610b2257600080fd5b503560020b612042565b610b8a60048036036020811015610b4257600080fd5b50600360208190529035600290810b600090815260409020805460018201548284015492909401549093600f81900b93600160801b8204810b93600160981b909204900b9186565b60408051968752600f9590950b6020870152600293840b868601529190920b6060850152608084019190915260a0830152519081900360c00190f35b61046360048036036020811015610bdc57600080fd5b50356001600160a01b03166120c4565b600080610bff8888888860008989612395565b610c0761248d565b600080610c126124c6565b91509150600080600080610c278d8d8d61270b565b949c50929a509096509450925090508c15610cc2576000871215610c7357610c737f00000000000000000000000000000000000000000000000000000000000000008f89600003612d94565b610c7f88888c8c612da4565b610c87612e1e565b610c918988615702565b1115610cb057604051633ed6d50560e21b815260040160405180910390fd5b610cbd8888836000612ec8565b610d43565b6000881215610cf957610cf97f00000000000000000000000000000000000000000000000000000000000000008f8a600003612d94565b610d0588888c8c612da4565b610d0d613130565b610d178887615702565b1115610d3657604051633ed6d50560e21b815260040160405180910390fd5b610d438888600084612ec8565b8d6001600160a01b0316336001600160a01b03167fc42079f94a6350d7e6235f29174924f928cc2ac818eb64fed8004e115fbcca678a8a88878960405180868152602001858152602001846001600160a01b03168152602001836001600160801b031681526020018260020b81526020019550505050505060405180910390a3505050505050610de16002805460ff60e01b1916600160e01b179055565b610df18888888886868a8a613198565b965096945050505050565b610e04613295565b610e0c6132c1565b6103e861ffff82161180610e2f575060025461ffff828116600160d01b90920416145b80610e51575061ffff811615801590610e5157506006546001600160a01b0316155b15610e88576040517fa709b9af00000000000000000000000000000000000000000000000000000000815260040160405180910390fd5b610e91816133b9565b50565b6000808686610ea3828261342a565b6f7fffffffffffffffffffffffffffffff6001600160801b0388161115610ef6576040517f8995290f00000000000000000000000000000000000000000000000000000000815260040160405180910390fd5b6000610f0188615715565b9050610f11338b8b848b8b6134f7565b610f1961248d565b610f216124c6565b50506000610f30338c8c6135e7565b9050610f3e818c8c85613613565b909650945085851715610fb1576003810154610f649087906001600160801b0316615753565b6003820154610f84908790600160801b90046001600160801b0316615753565b6001600160801b039182169116600160801b026fffffffffffffffffffffffffffffffff19161760038201555b6001600160801b038916861785171561101c57604080516001600160801b038b16815260208101889052808201879052905160028c810b92908e900b9133917f0c396cd989a39f4459b5fa1aed6a9a8dcdbc45908acfd67e028cd568da98982c919081900360600190a45b6110346002805460ff60e01b1916600160e01b179055565b611044338c8c858a8a8e8e613738565b505050509550959350505050565b600254600160c81b900460101615611169576005546040517f8de0a8ee0000000000000000000000000000000000000000000000000000000080825233600483018181526001600160a01b038a81166024860152604485018a90526064850189905260a06084860190815260a486018890526111699694959190941693638de0a8ee93928c928c928c928c928c929060c401848480828437600081840152601f19601f8201169050808301925050509750505050505050506020604051808303816000875af1158015611129573d6000803e3d6000fd5b505050506040513d602081101561113f57600080fd5b50517fffffffff000000000000000000000000000000000000000000000000000000001690613834565b61117161248d565b60008060008061117f6124c6565b9092509050600088156111c85761119b896064620f42406138ba565b90506111c87f00000000000000000000000000000000000000000000000000000000000000008b8b612d94565b6000881561120c576111df896064620f42406138ba565b905061120c7f00000000000000000000000000000000000000000000000000000000000000008c8b612d94565b61121882828a8a61393a565b611220612e1e565b95508561122d8386615702565b1115611265576040517f6dbca1fe00000000000000000000000000000000000000000000000000000000815260040160405180910390fd5b61126d613130565b94508461127a8285615702565b11156112b2576040517fc998149f00000000000000000000000000000000000000000000000000000000815260040160405180910390fd5b60025495849003959483900394600160d01b900461ffff16801561130f57600087156112e8576112e588836103e861397c565b90505b60008715611300576112fd88846103e861397c565b90505b61130c82828484612ec8565b50505b604080518c8152602081018c90528082018990526060810188905290516001600160a01b038e169133917fbdbdb71d7860376ba52b25a5028beea23581364a40522f6bcfb86bb1f2dca6339181900360800190a350505050506113806002805460ff60e01b1916600160e01b179055565b600254600160c81b90046020161561146b5761146b63343d37ff60e01b600560009054906101000a90046001600160a01b03166001600160a01b031663343d37ff338b8b8b89898d8d6040518963ffffffff1660e01b815260040180896001600160a01b03168152602001886001600160a01b03168152602001878152602001868152602001858152602001848152602001806020018281038252848482818152602001925080828437600081840152601f19601f82011690508083019250505099505050505050505050506020604051808303816000875af1158015611129573d6000803e3d6000fd5b50505050505050565b60008061147f61248d565b600061148c3388886135e7565b60038101549091506001600160801b0380821691600160801b900481169087168210156114b7578196505b806001600160801b0316866001600160801b031611156114d5578095505b6001600160801b038787171615611621576001600160801b0387830381168783038216600160801b026fffffffffffffffffffffffffffffffff1916176003850155879550869450851615611558576115587f00000000000000000000000000000000000000000000000000000000000000008b876001600160801b0316612d94565b6001600160801b0384161561159b5761159b7f00000000000000000000000000000000000000000000000000000000000000008b866001600160801b0316612d94565b6115c0856001600160801b0316600003856001600160801b0316600003600080612ec8565b604080516001600160a01b038c1681526001600160801b038088166020830152861681830152905160028a810b92908c900b9133917f70935338e69775456a85ddef226c395fb668b63fa0115f5f20610b388e6ca9c0919081900360600190a45b6116396002805460ff60e01b1916600160e01b179055565b5050509550959350505050565b600254600160c81b8104608016151590600160e01b900460ff1661167d57604051636798480960e11b815260040160405180910390fd5b6005546001600160a01b031633036116cb57806116c6576040517f3a4528ef00000000000000000000000000000000000000000000000000000000815260040160405180910390fd5b61170b565b8015611703576040517fd39b8e0e00000000000000000000000000000000000000000000000000000000815260040160405180910390fd5b61170b6132c1565b61171482613a15565b5050565b600280546001600160a01b03811691600160a01b8204900b9061ffff600160b81b8204169060ff600160c81b820481169160009182918291600160e01b909104168061177757604051636798480960e11b815260040160405180910390fd5b505060085495969495939492936001600160801b03660100000000000082041693600282810b9450630100000090920490910b9150565b60008060008612156117d3576040516334cb3a0160e11b815260040160405180910390fd5b6117db61248d565b600087156118315760006117ed612e1e565b90506117fc8860008888612da4565b6000611806612e1e565b905061181a611815838361577a565b613a7f565b925061182a836000806000612ec8565b5050611876565b600061183b613130565b905061184a6000898888612da4565b6000611854613130565b9050611863611815838361577a565b9250611873600084600080612ec8565b50505b868114611881578096505b50856000036118a357604051633ed6d50560e21b815260040160405180910390fd5b6118bb6002805460ff60e01b1916600160e01b179055565b6118cb8888888860018989612395565b6118d361248d565b6118db6124c6565b50506000806000806118ee8b8b8b61270b565b949a509298509096509450925090508a1561198d57600085121561193a5761193a7f00000000000000000000000000000000000000000000000000000000000000008d87600003612d94565b858a038a871461196f5761196f7f00000000000000000000000000000000000000000000000000000000000000008f83612d94565b61198761197b82613a7f565b60000387846000612ec8565b50611a13565b60008612156119c4576119c47f00000000000000000000000000000000000000000000000000000000000000008d88600003612d94565b848a038a86146119f9576119f97f00000000000000000000000000000000000000000000000000000000000000008f83612d94565b611a1187611a0683613a7f565b600003600085612ec8565b505b60408051878152602081018790526001600160a01b03868116828401526001600160801b0385166060830152600286900b60808301529151918e169133917fc42079f94a6350d7e6235f29174924f928cc2ac818eb64fed8004e115fbcca67919081900360a00190a3611a946002805460ff60e01b1916600160e01b179055565b611aa48c8c8c8c8a8a8e8e613198565b5050505097509795505050505050565b60008060008787611ac5828261342a565b876001600160801b0316600003611b08576040517fe6ace6df00000000000000000000000000000000000000000000000000000000815260040160405180910390fd5b611b278b8b8b611b208c6001600160801b0316613a93565b8b8b6134f7565b611b2f61248d565b60028054600160a01b810490910b906001600160a01b03166000819003611b82576040517f812eb65500000000000000000000000000000000000000000000000000000000815260040160405180910390fd5b600854600160b01b9004600290810b9081908d900b81611ba457611ba461578d565b078160020b8e60020b81611bba57611bba61578d565b071760020b15611bf6576040517f5f6e14f300000000000000000000000000000000000000000000000000000000815260040160405180910390fd5b50611c158c8c611c0e8d6001600160801b0316613a93565b8585613aa6565b50909750955060009150819050611c2a6124c6565b91509150611c3a87878b8b613b55565b8615611c585781611c49612e1e565b611c53919061577a565b611c5b565b60005b91508515611c7b5780611c6c613130565b611c76919061577a565b611c7e565b60005b905086821015611ca357611c9c8a6001600160801b0316838961397c565b9450611ca7565b8994505b85811015611ce7576000611cc58b6001600160801b0316838961397c565b9050856001600160801b0316816001600160801b03161015611ce5578095505b505b846001600160801b0316600003611d2a576040517fbeba2a6c00000000000000000000000000000000000000000000000000000000815260040160405180910390fd5b6000611d378e8e8e6135e7565b9050611d56818e8e611d518a6001600160801b0316613a93565b613613565b9098509650508615611dab5786821115611d9c57611d977f00000000000000000000000000000000000000000000000000000000000000008f898503612d94565b611dab565b868214611dab57611dab6157a3565b8515611dfa5785811115611deb57611de67f00000000000000000000000000000000000000000000000000000000000000008f888403612d94565b611dfa565b858114611dfa57611dfa6157a3565b611e078787600080612ec8565b8a60020b8c60020b8e6001600160a01b03167f7a53080ba414158be7ec69b987b5fb7d07dee101fe85488f0853ae16239d0bde33898c8c60405180856001600160a01b03168152602001846001600160801b0316815260200183815260200182815260200194505050505060405180910390a4611e926002805460ff60e01b1916600160e01b179055565b611eb38d8d8d611eaa896001600160801b0316613a93565b8b8b8f8f613738565b505050509750975097945050505050565b611ecc613295565b6005546001600160a01b031680611f0f576040517f9e727ce300000000000000000000000000000000000000000000000000000000815260040160405180910390fd5b336001600160a01b03821614611f2757611f276132c1565b61171482613b97565b611f38613295565b611f406132c1565b611f4a6000613b97565b610e9181613c00565b611f5b613295565b611f636132c1565b6001600160a01b038116158015611f865750600254600160d01b900461ffff1615155b15611f9557611f9560006133b9565b610e9181613c5b565b600254600160b81b810461ffff1690600160c81b900460ff8116906080161561203e57600560009054906101000a90046001600160a01b03166001600160a01b031663f70d93626040518163ffffffff1660e01b8152600401602060405180830381865afa158015612014573d6000803e3d6000fd5b505050506040513d601f19601f8201168201806040525081019061203891906157cb565b91505090565b5090565b61204a613295565b6120526132c1565b60008160020b13158061206a57506101f4600282900b135b806120845750600854600282810b600160b01b909204900b145b156120bb576040517fafe09f4400000000000000000000000000000000000000000000000000000000815260040160405180910390fd5b610e9181613cb6565b60006120cf82613d1f565b6002549091506001600160a01b031615612115576040517f52669adc00000000000000000000000000000000000000000000000000000000815260040160405180910390fd5b6002805473ffffffffffffffffffffffffffffffffffffffff19166001600160a01b038481169190911790915560055416156121c457600554604080517f636fd804000000000000000000000000000000000000000000000000000000008082523360048301526001600160a01b03868116602484015292516121c49491939091169163636fd80491604480830192602092919082900301816000875af1158015611129573d6000803e3d6000fd5b6000806000806121d2614078565b600280547fffffffff0000ffffff000000ffffffffffffffffffffffffffffffffffffffff8116600160a01b62ffffff8d16027fffffffff0000ffffffffffffffffffffffffffffffffffffffffffffffffffff1617600160d01b61ffff881602178255604080516001600160a01b038e168152928c900b60208401528051969a50949850929650909450600160c81b90910460ff16927f98636036cb66a9c19a37435efc1e90142190214e8abeb821bdba3f2990dd4c95929181900390910190a161229d83613a15565b6122a684613cb6565b6122af82613c5b565b61ffff8516158015906122c957506001600160a01b038216155b15612300576040517fa709b9af00000000000000000000000000000000000000000000000000000000815260040160405180910390fd5b612309856133b9565b604081161561146b57600554604080517f82dd6522000000000000000000000000000000000000000000000000000000008082523360048301526001600160a01b038b8116602484015260028b900b6044840152925161146b949193909116916382dd652291606480830192602092919082900301816000875af1158015611129573d6000803e3d6000fd5b600254600160c81b90046001161561146b5761146b63029c1cb760e01b600560009054906101000a90046001600160a01b03166001600160a01b031663029c1cb7338b8b8b8b8b8b8b6040518963ffffffff1660e01b815260040180896001600160a01b03168152602001886001600160a01b031681526020018715158152602001868152602001856001600160a01b031681526020018415158152602001806020018281038252848482818152602001925080828437600081840152601f19601f82011690508083019250505099505050505050505050506020604051808303816000875af1158015611129573d6000803e3d6000fd5b600254600160e01b900460ff166124b757604051636798480960e11b815260040160405180910390fd5b6002805460ff60e01b19169055565b6000806124d1612e1e565b6124d9613130565b90925090506001600160801b038211806124f957506001600160801b0381115b156125da576006546001600160a01b03166001600160801b03831115612571576125667f0000000000000000000000000000000000000000000000000000000000000000827fffffffffffffffffffffffffffffffff000000000000000000000000000000018601612d94565b6001600160801b0392505b6001600160801b038211156125d8576125cd7f0000000000000000000000000000000000000000000000000000000000000000827fffffffffffffffffffffffffffffffff000000000000000000000000000000018501612d94565b6001600160801b0391505b505b600854660100000000000090046001600160801b031660008190036125fe57509091565b600b546001600160801b0380821691600160801b90041681851181851181806126245750805b1561270257811561265c57612652846001600160801b03168803600160801b876001600160801b031661397c565b6000805490910190555b801561268f57612685836001600160801b03168703600160801b876001600160801b031661397c565b6001805490910190555b604080516001600160801b038087168a0382528516880360208201527fef10ebb00f0dbc72ad4602e94abbbda6f3d40632714f70e9c8fa30d5d44289c9910160405180910390a16001600160801b03808816908716600160801b026fffffffffffffffffffffffffffffffff191617600b555b50505050509091565b6000806000806000808760000361274e576040517f79db984000000000000000000000000000000000000000000000000000000000815260040160405180910390fd5b7f8000000000000000000000000000000000000000000000000000000000000000880361278e576040516334cb3a0160e11b815260040160405180910390fd5b6040805161014081018252600060208201819052606082018190526080820181905260a08201819052808b1360c08301529181018a9052600854600281810b61012084015263010000008204810b610100840152805461ffff600160d01b820481168552600160b81b82041660e08501526001600160a01b0381169850600160a01b9004900b9550660100000000000090046001600160801b0316935090859003612865576040517f812eb65500000000000000000000000000000000000000000000000000000000815260040160405180910390fd5b89156128de57846001600160a01b0316886001600160a01b031610158061289a57506401000276a36001600160a01b03891611155b156128d1576040517f1662672300000000000000000000000000000000000000000000000000000000815260040160405180910390fd5b600054608082015261295c565b846001600160a01b0316886001600160a01b031611158061291c575073fffd8963efd1fc6a506488495d951d5263988d266001600160a01b03891610155b15612953576040517f1662672300000000000000000000000000000000000000000000000000000000815260040160405180910390fd5b60015460808201525b61298e6040518060a0016040528060008152602001600081526020016000815260200160008152602001600081525090565b60008b6129a0578261012001516129a7565b8261010001515b6001600160a01b038816835290506129be81614130565b6001600160a01b03908116602084018190526129fb918e918a918e1611821515146129ed5784602001516129ef565b8c5b888f8860e00151614424565b60808601526060850152604084015260c084015190975015612a5357612a2a8260800151836040015101613a7f565b8b039a50612a49612a3e8360600151613a7f565b6060850151906145f6565b6060840152612a8b565b612a608260600151613a7f565b8b019a50612a85612a7a8360800151846040015101613a7f565b606085015190614612565b60608401525b825115612acd57825160808301516000916103e891612aa991614628565b81612ab657612ab661578d565b608085018051929091049182900390529490940193505b6001600160801b03851615612b0457612af88260800151600160801b876001600160801b031661397c565b60808401805190910190525b8160200151876001600160a01b031603612c20578260200151612b3f57600160208401528b612b3557600054612b39565b6001545b60a08401525b60008c15612bae5750608083015160a0840151600283810b600081815260036020819052604082209081018054828601805490980390975595909403909455600190920154600160801b810490910b61010087015261012086019190915260001983019750600f0b9003612c0e565b5060a08301516080840151600283810b60008181526003602081905260409091209081018054828501805490970390965594909303909355600190910154600160981b810490910b6101208601526101008501919091529095508590600f0b5b612c188682614652565b955050612c42565b81516001600160a01b03881614612c4257612c3a87613d1f565b955050612c69565b508915801590612c645750886001600160a01b0316866001600160a01b031614155b61298e575b60008a83604001510390508260c0015115158c151514612c8e57826060015181612c95565b8083606001515b600280547fffffffffffffffffff000000000000000000000000000000000000000000000016600160a01b62ffffff8b160273ffffffffffffffffffffffffffffffffffffffff1916176001600160a01b038b161790556020850151919a509850159050612d6a576101008201516101208301516008805462ffffff92831665ffffffffffff199091161763010000009290931691909102919091177fffffffffffffffffffff00000000000000000000000000000000ffffffffffff1666010000000000006001600160801b038716021790555b8a15612d7d576080820151600055612d86565b60808201516001555b505093975093979195509350565b612d9f8383836146fe565b505050565b6040517f2c8958f60000000000000000000000000000000000000000000000000000000081523390632c8958f690612de690879087908790879060040161582f565b600060405180830381600087803b158015612e0057600080fd5b505af1158015612e14573d6000803e3d6000fd5b5050505050505050565b6040517f70a082310000000000000000000000000000000000000000000000000000000081523060048201526000907f00000000000000000000000000000000000000000000000000000000000000006001600160a01b0316906370a08231906024015b602060405180830381865afa158015612e9f573d6000803e3d6000fd5b505050506040513d601f19601f82011682018060405250810190612ec3919061584f565b905090565b8181171561309d576004546cffffffffffffffffffffffffff640100000000820481168401917101000000000000000000000000000000000090041682016000612f0f4290565b60045490915061708063ffffffff9182168303909116101580612f3e57506cffffffffffffffffffffffffff83115b80612f5557506cffffffffffffffffffffffffff82115b1561301c576006546001600160a01b03168315612f9757612f977f00000000000000000000000000000000000000000000000000000000000000008286612d94565b8215612fc857612fc87f00000000000000000000000000000000000000000000000000000000000000008285612d94565b600480547fffffffffffffffffffffffffffffffffffffffffffffffffffffffff000000001663ffffffff841617905561300184613a7f565b880361300c84613a7f565b9098509096039550600092508291505b50600480547fffff0000000000000000000000000000000000000000000000000000ffffffff16710100000000000000000000000000000000006cffffffffffffffffffffffffff938416027fffffffffffffffffffffffffffffff00000000000000000000000000ffffffff161764010000000093909216929092021790555b8383171561312a57600b546001600160801b0380821691600160801b90041685156130e0576130d46130cf8784615868565b614794565b6001600160801b031691505b84156130ff576130f36130cf8683615868565b6001600160801b031690505b6001600160801b039182169116600160801b026fffffffffffffffffffffffffffffffff191617600b555b50505050565b6040517f70a082310000000000000000000000000000000000000000000000000000000081523060048201526000907f00000000000000000000000000000000000000000000000000000000000000006001600160a01b0316906370a0823190602401612e82565b60028054600160c81b90041615612e1457612e14639cb5a96360e01b600560009054906101000a90046001600160a01b03166001600160a01b0316639cb5a963338c8c8c8c8c8c8c8c6040518a63ffffffff1660e01b8152600401808a6001600160a01b03168152602001896001600160a01b031681526020018815158152602001878152602001866001600160a01b03168152602001858152602001848152602001806020018281038252848482818152602001925080828437600081840152601f19601f8201169050808301925050509a50505050505050505050506020604051808303816000875af1158015611129573d6000803e3d6000fd5b600254600160e01b900460ff166132bf57604051636798480960e11b815260040160405180910390fd5b565b604080517fe8ae2b690000000000000000000000000000000000000000000000000000000081527fb73ce166ead2f8e9add217713a7989e4edfba9625f71dfd2516204bb67ad3442600482015233602482015290516001600160a01b037f0000000000000000000000000000000000000000000000000000000000000000169163e8ae2b699160448083019260209291908290030181865afa15801561336b573d6000803e3d6000fd5b505050506040513d602081101561338157600080fd5b50516132bf576040517f932984d200000000000000000000000000000000000000000000000000000000815260040160405180910390fd5b600280547fffffffff0000ffffffffffffffffffffffffffffffffffffffffffffffffffff16600160d01b61ffff8416908102919091179091556040519081527f3647dccc990d4941b0b05b32527ef493a98d6187b20639ca2f9743f3b55ca5e1906020015b60405180910390a150565b613437620d89e719615890565b60020b8160020b1315613476576040517f1445443d00000000000000000000000000000000000000000000000000000000815260040160405180910390fd5b8160020b8160020b136134b5576040517fd9a841a700000000000000000000000000000000000000000000000000000000815260040160405180910390fd5b620d89e719600283900b1215611714576040517f746b1fc400000000000000000000000000000000000000000000000000000000815260040160405180910390fd5b600254600160c81b9004600416156135df576005546040517f5e2411b20000000000000000000000000000000000000000000000000000000080825233600483018181526001600160a01b038b8116602486015260028b810b60448701528a900b6064860152600f89900b608486015260c060a4860190815260c486018890526135df9694959190941693635e2411b293928d928d928d928d928d928d929160e401848480828437600081840152601f19601f820116905080830192505050985050505050505050506020604051808303816000875af1158015611129573d6000803e3d6000fd5b505050505050565b62ffffff818116908316601885811b91909117901b176000908152600a602052604090205b9392505050565b6002805460008054600154919384936001600160a01b03811693600160a01b90910490910b918491829190600f89900b1561366f5761365960038c878c868660006147aa565b935061366c60038b878c868660016147aa565b92505b60008061368160038e8e8a88886148bd565b915091506136918e8c848461495b565b5050505086600f0b60001461372b5781806136a95750805b156136c2576136c2898984848760008d600f0b12614a59565b60006136d18a8a8a8789613aa6565b91985096509050600f81900b156137295760085461370290660100000000000090046001600160801b031689614652565b600860066101000a8154816001600160801b0302191690836001600160801b031602179055505b505b5050505094509492505050565b600254600160c81b900460081615612e1457612e1463d685201060e01b600560009054906101000a90046001600160a01b03166001600160a01b031663d6852010338c8c8c8c8c8c8c8c6040518a63ffffffff1660e01b8152600401808a6001600160a01b03168152602001896001600160a01b031681526020018860020b81526020018760020b815260200186600f0b8152602001858152602001848152602001806020018281038252848482818152602001925080828437600081840152601f19601f8201169050808301925050509a50505050505050505050506020604051808303816000875af1158015611129573d6000803e3d6000fd5b7fffffffff0000000000000000000000000000000000000000000000000000000082811690821614611714576040517fd3f5153b0000000000000000000000000000000000000000000000000000000081527fffffffff000000000000000000000000000000000000000000000000000000008216600482015260240160405180910390fd5b60008315806138db575050828202828482816138d8576138d861578d565b04145b156138fc57600082116138ed57600080fd5b8181049082900615150161360c565b61390784848461397c565b9050600082806139195761391961578d565b848609111561360c57600019811061393057600080fd5b6001019392505050565b6040517fa60b0d3c000000000000000000000000000000000000000000000000000000008152339063a60b0d3c90612de690879087908790879060040161582f565b6000838302816000198587098281108382030391505080841161399e57600080fd5b806000036139b15750829004905061360c565b8385870960008581038616958690049560026003880281188089028203028089028203028089028203028089028203028089028203028089029091030291819003819004600101858411909403939093029190930391909104170290509392505050565b600280547fffffffffffffff0000ffffffffffffffffffffffffffffffffffffffffffffff16600160b81b61ffff8416908102919091179091556040519081527f598b9f043c813aa6be3426ca60d1c65d17256312890be5118dab55b0775ebe2a9060200161341f565b806000811215613a8e57600080fd5b919050565b806000600f82900b1215613a8e57600080fd5b600080600080613ab589614130565b90506000613ac289614130565b90506000808b60020b8960020b1215613ae757613ae084848c614b52565b9150613b25565b8a60020b8960020b1215613b1757613b0088848c614b52565b9150613b0d84898c614b92565b9050899450613b25565b613b2284848c614b92565b90505b60008a600f0b12613b37578181613b40565b81600003816000035b909d909c50949a509398505050505050505050565b6040517f3dd657c50000000000000000000000000000000000000000000000000000000081523390633dd657c590612de690879087908790879060040161582f565b600280547fffffffffffff00ffffffffffffffffffffffffffffffffffffffffffffffffff16600160c81b60ff8416908102919091179091556040519081527f3a6271b36c1b44bd6a0a0d56230602dc6919b7c17af57254306fadf5fee69dc39060200161341f565b6005805473ffffffffffffffffffffffffffffffffffffffff19166001600160a01b0383169081179091556040519081527f27a3944eff2135a57675f17e72501038982b73620d01f794c72e93d61a3932a29060200161341f565b6006805473ffffffffffffffffffffffffffffffffffffffff19166001600160a01b0383169081179091556040519081527fb0b573c1f636e1f8bd9b415ba6c04d6dd49100bc25493fc6305b65ec0e581df39060200161341f565b600880547fffffffffffffff000000ffffffffffffffffffffffffffffffffffffffffffff16600160b01b62ffffff841602179055604051600282900b81527f01413b1d5d4c359e9a0daa7909ecda165f6e8c51fe2ff529d74b22a5a7c026459060200161341f565b60006401000276a36001600160a01b0383161080613d5a575073fffd8963efd1fc6a506488495d951d5263988d266001600160a01b03831610155b15613d91576040517f55cf1e2300000000000000000000000000000000000000000000000000000000815260040160405180910390fd5b77ffffffffffffffffffffffffffffffffffffffff00000000602083901b166001600160801b03811160071b81811c67ffffffffffffffff811160061b90811c63ffffffff811160051b90811c61ffff811160041b90811c60ff8111600390811b91821c600f811160021b90811c918211600190811b92831c97908811961790941790921717909117171760808110613e3257607f810383901c9150613e3c565b80607f0383901b91505b908002607f81811c60ff83811c9190911c800280831c81831c1c800280841c81841c1c800280851c81851c1c800280861c81861c1c800280871c81871c1c800280881c81881c1c800280891c81891c1c8002808a1c818a1c1c8002808b1c818b1c1c8002808c1c818c1c1c8002808d1c818d1c1c8002808e1c9c81901c9c909c1c80029c8d901c9e9d7fffffffffffffffffffffffffffffffffffffffffffffffffffffffffffffff808f0160401b60c09190911c678000000000000000161760c19b909b1c674000000000000000169a909a1760c29990991c672000000000000000169890981760c39790971c671000000000000000169690961760c49590951c670800000000000000169490941760c59390931c670400000000000000169290921760c69190911c670200000000000000161760c79190911c670100000000000000161760c89190911c6680000000000000161760c99190911c6640000000000000161760ca9190911c6620000000000000161760cb9190911c6610000000000000161760cc9190911c6608000000000000161760cd9190911c66040000000000001617693627a301d71055774c8581027ffffffffffffffffffffffffffffffffffd709b7e5480fba5a50fed5e62ffc5568101608090811d906fdb2df09e81959a81455e260799a0632f8301901d600281810b9083900b1461406957886001600160a01b031661404e82614130565b6001600160a01b03161115614063578161406b565b8061406b565b815b9998505050505050505050565b6040517f82b13d8d0000000000000000000000000000000000000000000000000000000081523060048201526000908190819081906001600160a01b037f000000000000000000000000000000000000000000000000000000000000000016906382b13d8d90602401608060405180830381865afa1580156140fe573d6000803e3d6000fd5b505050506040513d601f19601f8201168201806040525081019061412291906158c5565b935093509350935090919293565b6000600282900b60171d62ffffff818401821816620d89e8811115614181576040517f3c10250f00000000000000000000000000000000000000000000000000000000815260040160405180910390fd5b600160801b60018216156141a257506ffffcb933bd6fad37aa2d162d1a5940015b60028216156141c1576ffff97272373d413259a46990580e213a0260801c5b60048216156141e0576ffff2e50f5f656932ef12357cf3c7fdcc0260801c5b60088216156141ff576fffe5caca7e10e4e61c3624eaa0941cd00260801c5b601082161561421e576fffcb9843d60f6159c9db58835c9266440260801c5b602082161561423d576fff973b41fa98c081472e6896dfb254c00260801c5b604082161561425c576fff2ea16466c96a3843ec78b326b528610260801c5b608082161561427b576ffe5dee046a99a2a811c461f1969c30530260801c5b61010082161561429b576ffcbe86c7900a88aedcffc83b479aa3a40260801c5b6102008216156142bb576ff987a7253ac413176f2b074cf7815e540260801c5b6104008216156142db576ff3392b0822b70005940c7a398e4b70f30260801c5b6108008216156142fb576fe7159475a2c29b7443b29c7fa6e889d90260801c5b61100082161561431b576fd097f3bdfd2022b8845ad8f792aa58250260801c5b61200082161561433b576fa9f746462d870fdf8a65dc1f90e061e50260801c5b61400082161561435b576f70d869a156d2a1b890bb3df62baf32f70260801c5b61800082161561437b576f31be135f97d08fd981231505542fcfa60260801c5b6201000082161561439c576f09aa508b5b7a84e1c677de54f3e99bc90260801c5b620200008216156143bc576e5d6af8dedb81196699c329225ee6040260801c5b62040000821061440257620400008216156143e5576d2216e584f5fa1ea926041bedfe980260801c5b62080000821615614402576b048a170391f7dc42444e8fa20260801c5b60008560020b131561441357600019045b63ffffffff0160201c949350505050565b6000806000806156e48a61443a57614bc261443e565b614bd15b90506000871261451657600061446b888861ffff16620f42400362ffffff16620f424062ffffff1661397c565b905061447c8a8c8b8563ffffffff16565b94508481106144a9578995506144a28561ffff891662ffffff620f4240829003166138ba565b92506144ef565b6144b58b8a838f614be0565b9550856001600160a01b03168a6001600160a01b0316036144d8576144d86157a3565b6144e7868c8b8563ffffffff16565b945084880392505b61450e868c8b8f61450257614bf9614506565b614c085b63ffffffff16565b9350506145e8565b6156e48b61452657614bf961452a565b614c085b905061453b8a8c8b8463ffffffff16565b93508760000397506000881215614565576040516334cb3a0160e11b815260040160405180910390fd5b838810614574578995506145b9565b6145808b8a8a8f614c17565b9550856001600160a01b03168a6001600160a01b0316146145ad576145aa868c8b8463ffffffff16565b93505b878411156145b9578793505b6145c8868c8b8563ffffffff16565b94506145e48561ffff891662ffffff620f4240829003166138ba565b9250505b509650965096509692505050565b8082038281131560008312151461460c57600080fd5b92915050565b8181018281121560008312151461460c57600080fd5b6000821580614649575050818102818382816146465761464661578d565b04145b61460c57600080fd5b60008082600f0b12156146ad57508082016001600160801b03808416908216106146a8576040517f1301f74800000000000000000000000000000000000000000000000000000000815260040160405180910390fd5b61460c565b826001600160801b03168284019150816001600160801b0316101561460c576040517f997402f200000000000000000000000000000000000000000000000000000000815260040160405180910390fd5b60006040517fa9059cbb000000000000000000000000000000000000000000000000000000006000526001600160a01b03841660045282602452602060006044600080895af19150813d1560203d14600160005114161716915080604052508061312a576040517fe465903e00000000000000000000000000000000000000000000000000000000815260040160405180910390fd5b806001600160801b0381168114613a8e57600080fd5b600286900b60009081526020889052604081208054826147ca8289614652565b6001600160801b031690506d09745258e83de0d0f4e400fce79981111561481d576040517f25b8364a00000000000000000000000000000000000000000000000000000000815260040160405180910390fd5b6001830154600f0b856148415788600f0b81600f0b61483c9190615868565b614853565b88600f0b81600f0b614853919061592f565b6001850180546fffffffffffffffffffffffffffffffff19166001600160801b03929092169190911790558184558115945060008390036148ae57841594508960020b8b60020b136148ae5760038401879055600284018890555b50505050979650505050505050565b600285810b60009081526020889052604080822087840b8084529183209293849391929088900b1215614933578860020b8760020b1261490e5781600201548603935081600301548503925061491d565b81600201549350816003015492505b600281015460038201549403939092039161494e565b81600201548160020154039350816003015481600301540392505b5050965096945050505050565b8354600f84900b60000361498557806001600160801b0316600003614980575061312a565b61499b565b61498f8185614652565b6001600160801b031685555b6001850154600286015460008583146149d257600188018690556149cf8387036001600160801b038616600160801b61397c565b90505b60008583146149ff57600289018690556149fc8387036001600160801b038716600160801b61397c565b90505b6001600160801b038282171615614a4e57600389018054600160801b6001600160801b03808316860181166fffffffffffffffffffffffffffffffff1990931683178290048116850116021790555b505050505050505050565b60085463010000008104600290810b919081900b90600160c81b900463ffffffff168282828915614a9a57614a928c898386868c614c27565b919450925090505b8815614ab657614aae8b898386868c614c27565b919450925090505b8260020b8660020b141580614ad157508160020b8560020b14155b80614ae857508363ffffffff168163ffffffff1614155b15614b44576008805462ffffff80861663010000000265ffffffffffff1963ffffffff8616600160c81b02167fffffff00000000ffffffffffffffffffffffffffffffffffffff00000000000090931692909217908516171790555b505050505050505050505050565b60008082600f0b1215614b7a57614b726118158585856000036000614d1c565b600003614b8a565b614b8a6118158585856001614d1c565b949350505050565b60008082600f0b1215614bb257614b726118158585856000036000614dc9565b614b8a6118158585856001614dc9565b6000614b8a8385846001614dc9565b6000614b8a8484846001614d1c565b6000614bf0858585856001614e4c565b95945050505050565b6000614b8a8385846000614d1c565b6000614b8a8484846000614dc9565b6000614bf0858585856000614e4c565b60008060008315614c7157600080614c4060038c61508e565b915091508a60020b8860020b03614c5957819750614c6a565b8a60020b8760020b03614c6a578096505b5050614cfa565b6000808a60020b8860020b128015614c8e57508a60020b8760020b135b15614cb757508690508560028a810b908c900b1315614caf578a9650614cea565b8a9750614cea565b614cc5600760098b8e61525e565b600281810b600090815260036020526040902060010154600160801b9004900b925090505b614cf760038c8484615330565b50505b6000614d0a600760098a8d61547b565b969a9599509597509395505050505050565b60006001600160a01b0385850381169085168110614d3957600080fd5b7bffffffffffffffffffffffffffffffff000000000000000000000000606085901b1683614d9257866001600160a01b0316614d7f8383896001600160a01b031661397c565b81614d8c57614d8c61578d565b04614dbe565b614dbe614da98383896001600160a01b03166138ba565b886001600160a01b0316808204910615150190565b979650505050505050565b6000846001600160a01b0316846001600160a01b03161015614dea57600080fd5b6001600160a01b038585031682614e2157614e1c81856001600160801b03166c0100000000000000000000000061397c565b614e42565b614e4281856001600160801b03166c010000000000000000000000006138ba565b9695505050505050565b6000856001600160a01b0316600003614e6457600080fd5b846001600160801b0316600003614e7a57600080fd5b83600003614e89575084614bf0565b81151583151503614f97577bffffffffffffffffffffffffffffffff000000000000000000000000606086901b168215614f45576001600160a01b03871685810290868281614eda57614eda61578d565b0403614f0a57818101828110614f0857614efe838a6001600160a01b0316836138ba565b9350505050614bf0565b505b614f3c82614f31888b6001600160a01b03168681614f2a57614f2a61578d565b0490615513565b808204910615150190565b92505050614bf0565b6001600160a01b03871685810290868281614f6257614f6261578d565b0414614f6d57600080fd5b808211614f7957600080fd5b614f3c614f92838a6001600160a01b03168486036138ba565b615523565b811561500d57615006614f926001600160a01b03861115614fd857614fd3866c01000000000000000000000000896001600160801b031661397c565b614ff6565b6001600160801b038716606087901b81614ff457614ff461578d565b045b6001600160a01b03891690615513565b9050614bf0565b60006001600160a01b038511156150445761503f856c01000000000000000000000000886001600160801b03166138ba565b615061565b615061606086901b6001600160801b038816808204910615150190565b905080876001600160a01b03161161507857600080fd5b6001600160a01b03871603905095945050505050565b600281810b60008181526020859052604081206001810180548383557fffffffffffffffffffff000000000000000000000000000000000000000000008116909155818501839055600390910191909155600160801b8104830b92600160981b909104900b90620d89e7191480615116575061510d620d89e719615890565b60020b8360020b145b1561519257600283900b6000908152602085905260409020600101805462ffffff808516600160801b0272ffffff0000000000000000000000000000000019918516600160981b02919091167fffffffffffffffffffff000000000000ffffffffffffffffffffffffffffffff90921691909117179055615257565b8060020b8260020b036151d1576040517f0d6e094900000000000000000000000000000000000000000000000000000000815260040160405180910390fd5b600282810b6000908152602086905260408082206001908101805462ffffff808816600160981b027fffffffffffffffffffff000000ffffffffffffffffffffffffffffffffffffff909216919091179091559385900b83529120018054918416600160801b0272ffffff00000000000000000000000000000000199092169190911790555b9250929050565b600190810190600090600883811d610d8a01901c90829061ffff83161b851663ffffffff16156152c1576152928785615539565b909450909250905080156152a7575050614b8a565b6152b886610d8b840160010b615539565b90945090925090505b80615304576152df8563ffffffff168360010193508360010b61556a565b9093509050806152f75750620d89e89150614b8a9050565b61530186846156b8565b92505b614dbe877ffffffffffffffffffffffffffffffffffffffffffffffffffffffffffffff27685016156b8565b600283900b620d89e7191480615357575061534e620d89e719615890565b60020b8360020b145b61312a578260020b8260020b12801561537557508260020b8160020b135b6153ab576040517fe45ac17d00000000000000000000000000000000000000000000000000000000815260040160405180910390fd5b600283810b60009081526020959095526040808620600190810180547fffffffffffffffffffff000000000000ffffffffffffffffffffffffffffffff16600160981b62ffffff878116820272ffffff000000000000000000000000000000001990811693909317600160801b8a831681029190911790945597860b8a52848a20840180547fffffffffffffffffffff000000ffffffffffffffffffffffffffffffffffffff1698909916908102979097179097559390920b865290942090930180549092169202919091179055565b816000806154b88785600881901d600181810b60009081526020949094526040909320805460ff9093169390931b80831890935591811490151891565b91509150811561550957610d8a01600181810b60081d80820b6000908152602089905260409020805460ff9094169290921b808418909255821591909214818118935014615509576001811b831892505b5050949350505050565b8082018281101561460c57600080fd5b806001600160a01b0381168114613a8e57600080fd5b600881901d600181900b600090815260208490526040812054819061555e908561556a565b93969095509293505050565b60008060ff831684811c808303615586578460ff1793506156af565b7f555555555555555555555555555555555555555555555555555555555555555560008290038216908116156001600160801b0382161560071b1777ffffffffffffffff0000000000000000ffffffffffffffff82161560061b177bffffffff00000000ffffffff00000000ffffffff00000000ffffffff82161560051b177dffff0000ffff0000ffff0000ffff0000ffff0000ffff0000ffff0000ffff82161560041b177eff00ff00ff00ff00ff00ff00ff00ff00ff00ff00ff00ff00ff00ff00ff00ff82161560031b177f0f0f0f0f0f0f0f0f0f0f0f0f0f0f0f0f0f0f0f0f0f0f0f0f0f0f0f0f0f0f0f0f82161560021b177f33333333333333333333333333333333333333333333333333333333333333339091161560011b1760ff1685019350600192505b50509250929050565b600181900b600090815260208390526040902054600882901b906156dc908261556a565b509392505050565b6132bf61594f565b634e487b7160e01b600052601160045260246000fd5b8082018082111561460c5761460c6156ec565b600081600f0b7fffffffffffffffffffffffffffffffff80000000000000000000000000000000810361574a5761574a6156ec565b60000392915050565b6001600160801b03818116838216019080821115615773576157736156ec565b5092915050565b8181038181111561460c5761460c6156ec565b634e487b7160e01b600052601260045260246000fd5b634e487b7160e01b600052600160045260246000fd5b805161ffff81168114613a8e57600080fd5b6000602082840312156157dd57600080fd5b61360c826157b9565b8183528181602085013750600060208284010152600060207fffffffffffffffffffffffffffffffffffffffffffffffffffffffffffffffe0601f840116840101905092915050565b848152836020820152606060408201526000614e426060830184866157e6565b60006020828403121561586157600080fd5b5051919050565b8082018281126000831280158216821582161715615888576158886156ec565b505092915050565b60008160020b7fffffffffffffffffffffffffffffffffffffffffffffffffffffffffff800000810361574a5761574a6156ec565b600080600080608085870312156158db57600080fd5b6158e4856157b9565b935060208501518060020b81146158fa57600080fd5b9250615908604086016157b9565b915060608501516001600160a01b038116811461592457600080fd5b939692955090935050565b8181036000831280158383131683831282161715615773576157736156ec565b634e487b7160e01b600052605160045260246000fdfea164736f6c6343000814000a",
  "linkReferences": {},
  "deployedLinkReferences": {}
}